:020000040000FA
:0600000002011A0220803B
:03002B0002272584
:030053000220F692
:03006B000226F377
:10008300021F2FE5C754F84401F5C7790122000088
:100093000080FB120086B90003020104E47944786E
:1000A30008B800028004F709D8FCE4794C7802B858
:1000B30000028004F709D8FCE490028178BC790738
:1000C3008002F0A3D8FCD9FA784390014A7A01BAA6
:1000D30000028007E493A3F608DAF97A3C7B0990DF
:1000E300014B783B79048015E493A3AD82AE838AF8
:1000F300828B83F0A3AA82AB838D828E83D8E9D9C6
:10010300E77582A6758398740312012C7582917525
:100113008300740012012C75D00075814D754181E7
:10012300754202759F00020096C09FF59FE473D04D
:100133009F22D083D082C09FE493C0E0740193C018
:10014300E0740293F59F2201FF0000B40000280031
:100153002800283075A000A000A000A0000008001F
:1001630008E001F000100010001000100010001053
:100173000050005000500010001000D00700000095
:100183000000000F0001000500307507001000019A
:100193000081FF00000000FF8306A1068906FF021D
:1001A300020208025000A0000000E80302009001D0
:1001B3000000F38F023290010000930902089001BE
:1001C3000000B3020232900100009409020690017C
:1001D3000000C902023290010000950902F68F0166
:1001E3000000CB02023290010000960902F88F084A
:1001F3000000CC02023290010000970902FA8F013D
:1002030000009809FF0100FF20020090010000E7B1
:100213008F023290010000FC0902FC8F00000000F5
:1002230000020C900300001903B30CB30CB30CB31E
:100233000CB30CB30CB30CB30CB30CB30CB30CB3C3
:100243000CB30C8F0FA70F890F02020202020202E6
:100253000202010D0000001001020090010000F0F5
:100263008F0232900100003D0A022E9001000040EF
:10027300070232900100003E0A022C900100001395
:100283008F0232900100003F0A0224900100000512
:100293008F023290010000400A021490010000A373
:1002A3008E023290010000410A021290010000B553
:1002B3008E023290010000420A0210900100007F7A
:1002C3008E023290010000430A020E900100009159
:1002D3008E023290010000440A022A90010000F7C6
:1002E3008E023290010000450A020A900100004686
:1002F3000A01E803053F100AFFFFFF000130750301
:1003030002010600000000000000000000000000E1
:10031300000000000000000000000000000000FFDB
:10032300FF0600800CE8030A436861726163746529
:100333007269737469632031000243686172616397
:10034300746572697374696320320008436861726B
:100353006163746572697374696320330010436861
:100363006172616374657269737469632034000236
:10037300436861726163746572697374696320357C
:1003830000020090010000EA8F0232900100001B7E
:100393000B0218900300001E090222900100001CAA
:1003A3000B0232900100002D0B021A900100001F76
:1003B300090222900100002E0B0232900100003F3F
:1003C3000B021C9002000020090222900100004051
:1003D3000B023290010000510B021E90000000211D
:1003E30009020C900300002209022290010000522E
:1003F3000B023290010000630B02209004000028DE
:1004030009022290010000640B104B6579205072A1
:1004130065737320537461746500020090010000DA
:10042300ED8F023290010000FD0B022890000000C6
:100433002D09020C900300002E09022290010000F6
:10044300FE0B140953696D706C65424C455065721F
:100453006970686572616C051250002003020A001E
:100463000201050302F0FF53696D706C6520424C75
:1004730045205065726970686572616CF113000004
:10048300F7131201353CFE0212013553FE0212012D
:100493003584FE02120135BFFE02120135E9FE0268
:1004A30012013513FF021201352AFF0212013541F1
:1004B300FF0212013558FF0212013581FF021201BA
:1004C3003594FF02120135AAFF02120135BDFF0266
:1004D300120135E4FF02120135C1F501120135C5E0
:1004E300F601120135FDF60112013520F701120163
:1004F300352BF7011201354EF7011201355DF80175
:1005030012013532F901120135ADF9011201353508
:10051300FA0112013570FA01120135A7FA0112012D
:100523003535FB011201350EFC011201356EFC015C
:1005330012013579FC01120135F8FC01120135FB7A
:10054300FC01120135FEFC011201358DFD01120182
:100553003590FD01120135C0FD01120135EAFD019F
:10056300120135D8FE011201358AFF011201353F10
:10057300D30212013567D30212013595D30212015A
:1005830035CCD3021201352AD40212013575D402B7
:10059300120135C0D40212013500D50212013546CD
:1005A300D50212013574D50212013531D60212017A
:1005B300353BD60212013548D6021201357BD602ED
:1005C30012013547D70212013553D7021201356B99
:1005D300D70212013575D702120135A69503120110
:1005E30035B49503120135CC9503120135E4950317
:1005F3001201352BB001120135D7B001120135526A
:10060300B10112013573B201120135AFB20112010A
:100613003558B3011201353FB401120135A3B501B9
:10062300120135FAB5011201357BB6011201356BA2
:10063300B701120135B8B7011201353EB8011201F5
:100643003570B80112013584BA01120135C6BA01F9
:10065300120135E4BA0112013567BB011201353BC2
:10066300BC0112013503BD01120135DCC1021201C7
:1006730035AFC20212013558C302120135ABC302B2
:100683001201355BC402120135E7C402120135D3EE
:10069300C50212013502C60212013515C702120145
:1006A300355DC70212013532C8021201356EC80228
:1006B3001201358AC802120135C39703120135436B
:1006C300F10212013559F1021201357FF1021201D3
:1006D300359BF202120135A5F202120135DAF3025B
:1006E300120135D2F402120135B77A00120135E74F
:1006F3007B001201351A7C00120135647C00120163
:10070300352B7E001201353CA001120135A6A00154
:1007130012013505A20112013515A201120135425C
:10072300A20112013599A20112013542A30112015E
:100733003549A40112013513A50112013573A60130
:10074300120135B6A6011201355BA701120135A8C6
:10075300A701120135CEA701120135DCA90112014F
:1007630035E1A901120135E6AB0112013533AC01C4
:10077300120135A6AC01120135D9AC011201357B4A
:10078300AD0112013524AE011201355CAE01120137
:10079300355FAE01120135A7AE01120135E7AE0197
:1007A3001201353EAF0112013569FB021201358199
:1007B300FB02120135C9FB02120135DFFB021201F4
:1007C3003526FC021201353AFD02120135C7FD023E
:1007D30012013512FE021201355C27001201356841
:1007E3002700120135A32700120135E82700120163
:1007F30035A828001201352E29001201359329004E
:10080300120135BF2900120135F8290012013536CE
:100813002C001201351A2E0012013500300012018E
:1008230035433100120135913300120135A33400F1
:10083300120135EE3500120135FE36001201351B6B
:10084300370012013556370012013578370012018F
:1008530035DB37001201359C3C00120135313D0078
:10086300120135823D00120135A93D00120135FB0D
:100873003D00120135193E00120135733E0012018D
:10088300355C3F00120135D240001201355641005C
:10089300120135FCD70212013506D802120135497F
:1008A300D80212013564D802120135F4D8021201BC
:1008B300351CD90212013559D90212013590D902DA
:1008C300120135B9D9021201352EDA02120135436C
:1008D300DA0212013558DA0212013589DA021201FD
:1008E300359DDA02120135C2DA02120135FCDA0251
:1008F30012013528DB0212013560DB02120135DFFC
:10090300DB0212013528DC0212013552DC0212012E
:10091300357DDC02120135C39003120135EEE80187
:100923001201351CE9011201356AEA011201354A47
:10093300EB0112013569EB01120135E6EB011201FE
:100943003529EC011201357FED0112013540EE012D
:10095300120135C7F00112013568F1011201355E4C
:10096300F2011201355BF301120135B5F4011201F5
:100973003540F5011201353C8E03120135A58E0376
:10098300120135F98E03120135208F0312013551FF
:100993008F031201352AE10212013597E102120198
:1009A30035DEE102120135F6E202120135F2E3020D
:1009B300120135D5E40212013523AA02120135656D
:1009C300AA0212013537AB0212013510AC02120133
:1009D300350AAD02120135ECAD0212013555AE02F6
:1009E3001201350BAF021201357FAF02120135EB55
:1009F300AF0212013514B0021201358EB00212019A
:100A03003527B1021201358CB102120135A1B102B1
:100A1300120135E7B10212013500B2021201356548
:100A2300B20212013568B20212013570F8021201E6
:100A33003598F802120135D6F80212013594F902FD
:100A4300120135FBF90212013517FA021201353F83
:100A5300FA021201356FFA021201357EFA0212010F
:100A630035FBFA0212013521FB02120135359001E3
:100A7300120135D39101120135EE93011201352A8A
:100A830094011201355794011201353C950112016D
:100A930035839501120135C79501120135D99501A9
:100AA300120135199601120135469601120135914D
:100AB3009601120135D19601120135FF96011201FB
:100AC30035519701120135E197011201357F9A01E2
:100AD300120135959C01120135D39C011201356435
:100AE3009E01120135A99E01120135209F011201B9
:100AF300356A9F01120135959F01120135AAA002A3
:100B030012013529A102120135EBA602120135FAB1
:100B1300A70212013562A902120135F9A9021201D5
:100B230035915500120135DA55001201350756008B
:100B33001201353A5600120135475600120135535A
:100B430056001201356556001201354C570012014B
:100B530035AA5700120135DF57001201352259001B
:100B63001201356F590012013593590012013500F6
:100B73005A00120135BE5A00120135775B0012018B
:100B830035E45B00120135965C00120135A65C006A
:100B93001201352D5D00120135EC5D00120135198E
:100BA3005E00120135925E00120135EF5E00120104
:100BB30035395F00120135CF5F001201359A6000AD
:100BC3001201354F6100120135C461001201352550
:100BD30062001201358F6200120135C862001201F2
:100BE300356A63001201357A6400120135BA640074
:100BF300120135D76400120135F664001201353D48
:100C030065001201356265001201358F650012011E
:100C1300350966001201354A66001201356E670018
:100C23001201351E6800120135756800120135DFA7
:100C33006800120135F86800120135E096021201CE
:100C4300353397021201353F97021201351498028A
:100C53001201353B9802120135769802120135E2F2
:100C630098021201351E9902120135579902120199
:100C7300356F9902120135C49902120135DD9902CB
:100C8300120135269A02120135399A02120135539F
:100C93009A02120135699A021201359C9B021201D4
:100CA30035E39C02120135E59D02120135DF9E02F8
:100CB300120135EF7F00120135B7DB01120135E771
:100CC300DB01120135AFDF0112013506E10112012B
:100CD30035CFE1011201354FE30112013520E40163
:100CE3001201355DE40112013580E401120135BEC4
:100CF300E401120135C7E40112013511E5011201C6
:100D0300351BE501120135C5E5011201359EE601EA
:100D1300120135F2E60112013554E701120135A73C
:100D2300E701120135D6E70112013513E80112017B
:100D3300352A6900120135916C00120135976C0058
:100D430012013519720012013592760012013568CD
:100D53007A00120135A9ED021201351FEE021201CC
:100D63003535EE0212013576EE02120135B0EE0290
:100D730012013529EF0212013564EF02120135D752
:100D8300EF0212013515F0021201351EF0021201B5
:100D9300352AF00212013546F00212013571F002D4
:100DA30012013587F002120135B0F002120135133A
:100DB300F1021201357CCE021201358FCE021201EF
:100DC30035A9CE02120135D2CE0212013515CF025A
:100DD30012013554CF0212013592CF02120135F7B9
:100DE300CF021201350CD00212013517D0021201C5
:100DF3003524D0021201353BD00212013549D0020D
:100E030012013554D00212013560D002120135733C
:100E1300D0021201357ED002120135A1D002120197
:100E23003548D10212013558D10212013572D1026F
:100E33001201358FD102120135ABD102120135D027
:100E4300D102120135DBD102120135F0D1021201B8
:100E53003504D20212013565D2021201356BD2027A
:100E630012013571D20212013577D2021201358F88
:100E7300D202120135C2D2021201358DCD01120107
:100E83003511CE01120135C0CE011201351FD0013B
:100E930012013540D2011201352CD3011201356103
:100EA300D30112013583D30112013532D40112016A
:100EB300352AD60112013553D601120135E5D60183
:100EC30012013517D70112013524D7011201357BE1
:100ED300D701120135A1D7011201350EDA01120132
:100EE3003511DB0112013569DB011201351CBF012C
:100EF30012013526C0011201350DC101120135174A
:100F0300C10112013539C10112013545C101120177
:100F130035DEC2011201350DC30112013529C401A9
:100F230012013582C401120135E8C501120135C72A
:100F3300C60112013523C70112013590C701120101
:100F430035CBC7011201350AC801120135C3CA01E5
:100F5300120135DDCA0112013569CB011201357762
:100F6300CB01120135D0CB01120135DECB011201C9
:100F73003551CC01120135B5CC01120135FFCC013D
:100F8300120135B28B02120135D48B02120135FAEC
:100F93008D021201350F91021201352792021201BF
:100FA30035DA9202120135BC9302120135F98A0334
:100FB3001201351E8B03120135908B03120135622A
:100FC300BA021201356BBA0212013574BA02120168
:100FD300354BBB02120135FCBC0212013532BD0296
:100FE3001201356CBD02120135A2BD02120135DCBE
:100FF300BD0212013510BE021201353CBE021201C0
:101003003585BE02120135BFBE0212013508BF028B
:1010130012013560BF0212013595BF02120135F08E
:10102300BF021201352AC0021201357BC002120130
:1010330035B1C002120135EBC00212013519C102EC
:101043001201353CC1021201357D9603120135A907
:1010530096031201350497031201350E970312010B
:10106300351E9703120135008003120135258003D5
:101073001201354F8003120135479903120135BD23
:1010830041001201351F4400120135D645001201FB
:1010930035D34600120135634700120135E8470096
:1010A3001201350D48001201354E4B00120135C4B3
:1010B3004B00120135B54C00120135EF4C00120103
:1010C300352F4D00120135D54E001201352A4F0040
:1010D300120135774F00120135E54F001201350C2F
:1010E30050001201352650001201353C5100120107
:1010F300354C51001201355D520012013572520018
:10110300120135A85200120135F853001201353788
:1011130054001201355C5500120135D899031201B0
:1011230035FE98031201353D9903120135DE7F0028
:10113300120135C79403120135D79403120135EC1C
:101143009403120135A09503120135DC91031201BA
:1011530035609203120135C69203120135978F034E
:10116300120135BE8F031201351490031201352786
:101173009003120135789003120135B790031201E1
:1011830035BA9003120135BEE902120135D2E902E4
:101193001201354BEA0212013520EB02120135F23E
:1011A300EC0212013557ED0212013596ED021201E0
:1011B30035F87F001201350C85031201359486033F
:1011C300120135F586031201353B8703120135D62B
:1011D3009303120135FF930312013528940312017F
:1011E30035409403120135829403120135FFC8027E
:1011F30012013509C90212013549C902120135929A
:10120300C902120135CCC90212013522CA021201E8
:101213003541CA021201354ACA021201359BCA027C
:10122300120135C4CA02120135CECA021201353F7A
:10123300CB02120135CDCB0212013522CC021201B1
:101243003550CC02120135CCCC021201350FCD0240
:101253001201354CCD021201355ECD021201357DEE
:10126300CD0212013586CD0212013550CE02120194
:10127300359E8C03120135EF8C03120135788D03F3
:10128300120135DE8D03120135CC8203120135F6CE
:101293008203120135BF83031201359A84031201BD
:1012A30035DF92031201353E87031201357487033C
:1012B300120135AD87031201350689031201352862
:1012C30097031201353E9703120135489703120124
:1012D300359297031201358CB20212013549B302DC
:1012E30012013584B302120135ACB3021201350E7B
:1012F300B4021201355AB402120135C5B402120107
:101303003541B5021201353DB602120135C4B702AB
:1013130012013547B802120135ABB802120135C2CA
:10132300B802120135B8B90212013504BA0212012A
:1013330035A5DC02120135BADC021201356ADD0281
:10134300120135AADD02120135C3DD02120135F6A1
:10135300DD0212013543DE0212013577DE0212018E
:1013630035B9DE02120135B7E0021201351DE10283
:101373001201350080021201351483021201357502
:101383008402120135C5840212013543850212011C
:1013930035728702120135BD8A02120135DCF4026F
:1013A30012013521F5021201353EF502120135F421
:1013B300F50212013547F6021201351EF70212013A
:1013C3003537F80212013540890312013585890347
:1013D300120135D989031201355F8A03120135C021
:1013E3008A0312013597E502120135E3E702120180
:1013F30035F5E80212013595E902120135479803E4
:101403001201358E9903120135BA9903E066701003
:1014130008A3E066700A08A3E066700408A3E06608
:1014230022C3E7960809E7960809E7960809E796AD
:1014330022C3E09608A3E09608A3E09608A3E096EB
:1014430022C021C3E096F52108A3E096422108A318
:10145300E096422108A3E09645217001D3D02122D2
:10146300080808EAC0E0EBC0E086F0E7A4FA180930
:1014730086F0E7A42AFA180986F0E7A42AFA1809DD
:1014830086F0E7A42AFA1986F0E7A4FBE5F02AFA26
:10149300190886F0E7A42BFBE5F03AFA190886F061
:1014A300E7A42BFBE5F03AFA18180986F0E7A4C580
:1014B300F02BFBE43AFA1908E7C5F0C6A426F6E5D3
:1014C300F03BFBE43AFA1886F0E7A4F6E5F00826C9
:1014D300F6E43B08F6E43A08F6D0E0FBD0E0FA2263
:1014E300E4CFC0E0E4CEC0E0E4CDC0E0E4CCC0E0B3
:1014F30075F020E626F608E633F608E633F608E646
:1015030033F6181818EC33FCED33FDEE33FEEF33EE
:10151300FFC3EC9709ED9709EE9709EF971919198E
:10152300400FFFEC97FC09ED97FD09EE97FE1919A3
:1015330006D5F0BFECF709EDF709EEF709EFF71958
:101543001919D0E0FCD0E0FDD0E0FED0E0FF22602E
:1015530016080808C6C313C618C613C618C613C68A
:1015630018C613C6D5E0EA227009080808226016D7
:10157300181818C6C333C608C633C608C633C60808
:10158300C633C6D5E0EA22E627F60809E637F608A9
:1015930009E637F60809E637F622E026F608A3E05F
:1015A30036F608A3E036F608A3E036F622E026F086
:1015B30008A3E036F008A3E036F008A3E036F022F3
:1015C300C3E697F60809E697F60809E697F60809C9
:1015D300E697F622C3E096F008A3E096F008A3E0AE
:1015E30096F008A3E096F022E056F608A3E056F63C
:1015F30008A3E056F608A3E056F622E056F008A347
:10160300E056F008A3E056F008A3E056F022E0F617
:1016130008A3E0F608A3E0F608A3E0F622E6F00844
:10162300A3E6F008A3E6F008A3E6F022E0FAA3E0BD
:10163300FBA3E0FCA3E0FD22EAF0A3EBF0A3ECF0B4
:10164300A3EDF022E0F8A3E0F9A3E0FAA3E0FB2284
:10165300E8F0A3E9F0A3EAF0A3EBF022CAC0E0E6C6
:10166300F0A308DAFAD0E0FA22CAC0E0E0A3C58208
:10167300CCC582C583CDC583F0A3C582CCC582C545
:1016830083CDC583DAE6D0E0CA22C3E498F8E499AF
:10169300F91216CE8026C3E49AFAE49BFBE920E70D
:1016A300E91216CEE498F8E499F922C3E498F8E431
:1016B30099F91216CEE498F8E499F9C3E49AFAE496
:1016C3009BFB22EB20E7CFE920E7E0B90010BB004A
:1016D30008E88AF084F8AAF022E4FBC8FA22EB7047
:1016E300227B10C833C8C933C9335007C39AC3DB3D
:1016F300F280069A50012ADBEAC833F4C8C933F4EE
:10170300C9FA2275F008E4C833C8C933C933C99A82
:10171300C99B5004C92AC93BD5F0ECFBC833F4C8B4
:10172300E4C9FA22600D08C6A2E713C618C613C699
:10173300D5E0F322600C08C6C313C618C613C6D57A
:10174300E0F422700422600D18C6C333C608C63302
:10175300C6D5E0F41822254110AF08F541400C1519
:10176300428008F54140021542D2AF2200C0D02585
:101773004110AF08F541500C05428008F541500275
:101783000542D2AFD0D0222541F58210AF08F541F2
:10179300400C15428008F54140021542D2AF854204
:1017A30083222541F582E43542F583222541F8E47D
:1017B3003542F9222541FAE43542FB222541FCE476
:1017C3003542FD22E4732541C582C0E0E54234FF82
:1017D300C583C0E0E541C3958224F810AF08858333
:1017E300428582418008858342858241D2AFCEF013
:1017F300A3E520F0A37821E608F0A3DEFAEFF0A337
:10180300E58124FAF8E608F0A3E608F0A3E608F079
:10181300A30808E608F0A3E608F0A315811581D014
:10182300E0FED0E0F8158115811581E8C0E0EEC037
:10183300E0222541C582C0E0E54234FFC583C0E014
:10184300E541C3958224F910AF088583428582411F
:101853008008858342858241D2AFCEF0A3E520F094
:10186300A37821E608F0A3DEFAEFF0A3E58124FBD9
:10187300F8E608F0A3E608F0A30808E608F0A3E6F4
:1018830008F0A315811581D0E0FED0E0F81581158D
:1018930081E8C0E0EEC0E022854283854182E0A377
:1018A300FEE0A3F5207821E0A3F608DFFAE0A3FF2A
:1018B300E0A3C0E0E0A3C0E0E0A3C0E0E0A3C0E099
:1018C300E0A3C0E010AF088582418583428008858C
:1018D3008241858342D2AFD083D0820201328542D6
:1018E30083854182E0A3FEE0A3F5207821E0A3F6FF
:1018F30008DFFAE0A3FFE0A3C0E0E0A3C0E0E0A3B9
:10190300C0E0E0A3C0E010AF088582418583428038
:1019130008858241858342D2AFD083D08222C0D052
:101923002541C582C0E0E54234FFC583C0E0E541FF
:10193300C3958224F310AF088583428582418008D2
:10194300858342858241D2AFC8F0A3E9F0A3EAF0D0
:10195300A3EBF0A37921E709F0A3D8FAECF0A3ED08
:10196300F0A3EEF0A3EFF0A3D0E0F0A3D0E0F0A358
:10197300D0E0F0A3E520F0A3E5F0F0A322854283B5
:10198300854182E0C0E0A3E0F9A3E0FAA3E0FBA372
:101993007821E0F608A3DFFAE0FCA3E0FDA3E0FE74
:1019A300A3E0FFA3E0C0E0A3E0C0E0A3E0F5D0A381
:1019B300E0F520A3E0A3F5F010AF0885834285820C
:1019C300418008858342858241D2AFD082D083D0C3
:1019D300E0F8D0E03274048006740280027401C01F
:1019E300E0F40412178AD0E012165F227404800414
:1019F30074028000CCC0E0EDC0E0E541C39CCCADF7
:101A03004250011D10AF068C418D4280068C418DE2
:101A130042D2AF12166CD0E0FDD0E0FC22D083D0CE
:101A230082E9C0E0E493A3C386F0C5F095F0F9081A
:101A3300E493A386F0C5F095F0700BE493A3C399E8
:101A43004005E9048002A3E475F002A42582F5822F
:101A5300E5F03583F583D0E0F9E493A3C0E0E493A4
:101A6300C0E022D083D082ECC0E0EDC0E0E493A3D9
:101A7300FCE493A3FDED4C600D121AB2EC24FFFCC1
:101A8300ED34FFFD80EFE493A3FCE493A3FDED4C61
:101A9300600D121AF1EC24FFFCED34FFFD80EFD052
:101AA300E0FDD0E0FCE493A3C0E0E493C0E022C0F7
:101AB300E0C3E49396087401939618400FE4936689
:101AC300700808740193661870007019A3A3C3E427
:101AD3009396087401939618A3A3400DD0E0D0E029
:101AE300D0E0021AA2A3A3A3A3A3A3D0E022C0E041
:101AF300C0F088F0E4936670080874019366187068
:101B030000A8F0A3A3700BD0F0D0E0D0E0D0E002A7
:101B13001AA2A3A3D0F0D0E02274F5121835EAFE7E
:101B2300EBFFEE2434F8EF3400F988218922EE2408
:101B330035121C48F8EE2437121C48F523EC852394
:101B4300F0A4FCAAF08523F0EDA42AFDE82CF8E428
:101B53003DF97A257B001216CEEA85218285228300
:101B6300F074075AF87401B800028004C333D8FC38
:101B7300FBEA131313541FF8EE28F8EF3400F9E8C7
:101B8300245DF582E9121C4B5B6003EA801CEE24A2
:101B930036121C48F5F0EA84A8F0EE28F8EF34007A
:101BA300F9E82438F582E9121C4BF97F040218E1A5
:101BB30074F5121835EAFEEBFFEE2434121C48C00C
:101BC300E0EE2435F582EF3400F583D0E0F08E8229
:101BD3008F83A3A3A3A3A3E0FAA3E0FB8E828F8347
:101BE300A3A3A3A3A3A3A3E0FCA3E0FDECC39AF5E3
:101BF30023ED9BF524EE247FF521EF3400F52285B8
:101C03002182F583E06401702BEE2480F582EF34AA
:101C130000F5831219F3121C51740212176FE96055
:101C2300137CDC7D04EEFAEFFB120BDB852182854E
:101C33002283E4F0AC23AD24EEFAEFFB121B1C125B
:101C430026E5021BAEF582EF3400F583E022C08265
:101C5300C083854182854283E0F8A3E0F9C3EA9C0F
:101C6300EB9D5010C3EC98ED99401BC3EA98EB9998
:101C73005014800EC3EA98EB994007C3EC98ED9992
:101C83004004790180027900D083D08222EAC39C88
:101C9300FAEB9DFB2274ED1218359003A2E0640861
:101CA3006005E06407702C9061C8E060269003D063
:101CB300E0F874FF68601CE875F003A4C8AAF02A72
:101CC300F974D228FE740339FF8E828F83A3A3A3F2
:101CD300E070057900021E38EE2468F529EF340020
:101CE300F52A906060E0852982852A83F075234573
:101CF300752405752100752200E5D914F527E5D96A
:101D03005403F528601CEE2482F525EF3400F526F4
:101D1300740365286058E5276013EE2467121C4896
:101D2300700B793DEEFAEFFB120BFF80A690054096
:101D3300E064016026852582852683E060047804BB
:101D430080027800852721E521C398FA95E0FB12EC
:101D53000A7F8A218B22EA45227006120E5D021C3D
:101D6300D6852582852683E070048A238B24780018
:101D73008016E5D9C0E0882BE523252BF582E524E1
:101D83003400F583D0E0F008E8C3952740E48525C7
:101D930082852683E0602874FC2527F527782312A3
:101DA30019DCAC27A928EEFAEFFB120CAD74021272
:101DB300176FE9700AAA21AB22121277021D25744C
:101DC300036528605885272575260078251219DCB8
:101DD300AC23AD24AA21AB22120C71740212176F2B
:101DE300852982852A83E0F8748068700575257FCC
:101DF30080028825E525F52378231219E0E528F5E7
:101E03002378231219E0A927AC21AD229003D0E057
:101E1300FA7B00120917740212176F80139003A242
:101E2300E06408600BAC23AD24EEFAEFFB120D4324
:101E3300120E6979017F0C0218E174F312183574DC
:101E4300FC121759EAFEEBFF8921A2AFE433F52216
:101E5300C2AFEE2463F523EF3400F5248010AA23E8
:101E6300AB24120C291212779004E3E004F08523CB
:101E730082852483E0F8A3E0F9E849602FE824028F
:101E8300FAE93400FBEA2402F525EB3400F5267861
:101E9300251219DC8A828B83E0FCA3E0F9EEFAEFCA
:101EA300FB120C1D740212176FE960B29004E3E099
:101EB30060579004E4E0F89004E3E0C398500C7496
:101EC30002652170449004E5E0603E8E828F83A317
:101ED300A3A3A3E0854182854283121F1C740212CF
:101EE30017A5E8121F1C9004E2E028F074021217F1
:101EF300A5AC82AD83854182854283AA82AB837977
:101F0300011209239004E3E4F0E522A2E092AF7406
:101F13000412176F7F060218E1F0A3E4F09004E3C4
:101F2300E0F82200008544878545C622C0E074EFAF
:101F3300121921A2AFE433FEC2AF759B00906182F8
:101F4300E0A2E05012E591A2E0500C7591FE7401FD
:101F530065447003121C98E0A2E55051E591A2E597
:101F6300504B7591DF9003A2E064076005E06408BD
:101F7300702374016544703579019003D0E0FA75DC
:101F8300F003A4CAA8F028FB74D22AFA74033BFB1B
:101F9300121E3D8018E0640D70139003C4E004F03A
:101FA30064287002E4F07A00E0F9120E6F90618207
:101FB300E0A2E64003022056E591A2E64003022098
:101FC300567591BF9003A2E064057008120D851247
:101FD3000D918003120D8B754400120DFDE99003E2
:101FE300A3F07900120DF1120B457A017B009003E7
:101FF300A1E0F9121247907803E06442705590050E
:1020030044E014F0704DC2AF12200E00784DD0E0C2
:10201300F618D0E0F6E59F540770057522FF80039C
:1020230075227FC4C0E0784CE6F52108E65522F519
:1020330022740B7821121737D0E02521F8906270B3
:10204300E0A2E740F8E8C333906272F0906270E078
:10205300D2E0F0906181E0A2E35009E5E9A2E35008
:102063000375E9F7A3E0A2E75009E591A2E750035E
:1020730075917FEEA2E092AF7F04021980C0E0C0A9
:10208300D0C082C083906183E0A2E05009E5BFA283
:10209300E0500375BFFEE0A2E15009E5BFA2E150A5
:1020A3000375BFFDE0A2E25009E5BFA2E25003754C
:1020B300BFFBE0A2E35009E5BFA2E3500375BFF7FE
:1020C300E0A2E45009E5BFA2E4500375BFEFE0A22C
:1020D300E55009E5BFA2E5500375BFDFE0A2E65076
:1020E30009E5BFA2E6500375BFBFD083D082D0D02D
:1020F300D0E032C0E074F2121921E5A7A2E4500F38
:10210300E5A1A2E4500953A7EF75A1EF12214AE517
:10211300A7A2E5500CE5A1A2E5500653A7DF75A1E0
:10212300DFE5A7A2E15009E5A1A2E1500375A1FDF6
:10213300E5A7A2E2500CE5A1A2E2500653A7FB7566
:10214300A1FB7F0102198074F812183575440190C0
:1021530003A2E0640670077A007B00120D6DA2AF44
:10216300E433FED2AF9003A8E0640170187A207BB9
:10217300009003A1E0F91213557A207B009003A18C
:10218300E0F912124D906182E0D2E6F0900541E051
:10219300602185C64580169003A7E064017008E5B9
:1021A300C654F84405F5C653BEFC121F28740165D6
:1021B3004460E4EEA2E092AF7F010218E18E468F05
:1021C3004785824B85834A854182854283E0CEA33E
:1021D300E0CF854B82854A83EBC9EAC8EDCBECCAD5
:1021E30075F010C3E833C8E933C9EA33CAEB33CB1C
:1021F300C3EA9EF549EB9FF548B35004AB48AA499F
:10220300EC33CCED33CDD5F0DAAE46AF472274E9EB
:1022130012183574FA121759EAFEEBFF8C218D223E
:102223009003A2E024F7C394055006752901022305
:102233003C120CE38A238B24EA45247003022339DE
:10224300120DA38A258B26120DA3EA65257003EBD5
:10225300652660ECEEFCEFFD854182854283AA8210
:10226300AB83120DA9852382852483A3A37825122A
:102273001611908F7F78251215EB85418285428355
:10228300782D121611908F7F782D1215EB78257902
:102293002D121424501F7825792D1215C3908F63A6
:1022A3007825121444404785252985262A85272B1E
:1022B30085282C8045908F63852D29852E2A852F8F
:1022C3002B85302C782979251215C37829121444CB
:1022D300501C752900752A00752B00752C0178296F
:1022E300792D1215C37829792512158A800C752941
:1022F30001752A00752B00752C00740978291215B5
:102303006B908FDF7825121611782979251214E343
:102313009003A2E06408600AE064066005E06405D7
:102323007020908F9778291214445016908F6778F5
:102333002912159D800C752900752A00752B0075CF
:102343002C00852182852283782912162074061297
:10235300176F7F100218E174F7121835120DBB9036
:10236300053FE064017010906245E4F0A3F053F47C
:10237300F343FE0C5390F3120D5BE5C654804449BE
:10238300F5C6E59E547F644970F8906185740FF03B
:1023930090053DE0F47002A3E0602C7521017522E5
:1023A3000090053DE07821121746E521F4FAA3E0F9
:1023B300600814600A14600C800DEA52808008EAF9
:1023C30052908003EA52A079007F020218E174F769
:1023D300121835E9FEEAFF74016E700C7A807B00F7
:1023E3009003A1E0F9121247902754E493F4600894
:1023F300E493F9120B27800953C680E59E547F703E
:10240300FA120D6190053FE064017003120B5D90B9
:10241300053DE0F47002A3E0602A752101752200F6
:1024230090053DE07821121746AA21A3E060081425
:10243300600A14600C800DEA42808008EA429080B2
:1024430003EA42A0120CE38A218B22A821A922E8E5
:10245300496017E5E170FCE82414F582E93400F5DE
:1024630083E0F874FF68600288E174016F700A7A90
:10247300019003A1E0F91212CB0223CC74F11218DC
:10248300358A218B228C238D24908F7F78211215FE
:10249300EB740F1217A57825121611908F7F7825EC
:1024A3001215EB78217925121424908F635010783C
:1024B3002179251215C378211214444014800E7813
:1024C3002579211215C3782512144450047901800B
:1024D3000279007F080218E174ED1218358A218B06
:1024E300228C238D24908F7F78211215EB74131285
:1024F30017A57825121611908F7F78251215EB7882
:102503002579211214244011782179251215C3AAA3
:1025130021AB22AC23AD248022752900752A0075D6
:102523002B00752C01782979251215C37829792177
:1025330012158AAA29AB2AAC2BAD2C7F0C0218E109
:10254300908F7F78211216118A828B83782112153E
:10255300FE7F040218E174F51218358C828D83789E
:10256300211216118A828B8378211215D71225AD79
:10257300C3E098F0A3E09912259F401E908F9B78AB
:10258300211216118A828B8378211215B08E828FC5
:1025930083E02420F0A3E0344EF080A4F08E828FF9
:1025A30083C3E09420A3E0944E22EA2404F8EB349E
:1025B30000F9E8FEE9FF8C828D83A3A3A3A3E0F8CF
:1025C300A3E0F98E828F832274F5121835E9FE9009
:1025D30004F7E0FAA3E0FBEEC333F8E433F974C77E
:1025E30028F582748E39F583E02AF521A3E03BF5C3
:1025F3002278211219DC908FD312162F1221C07466
:102603000212176F8A218B228C238D247410782158
:10261300121552AA21AB227F040218E174F1121899
:10262300358A258B268C278D28740F1217A5E0FA7F
:10263300A3E0FB74111217A5E0F521A3E0F52278BE
:10264300211219DCEA2401F521EB3400F522E4F52B
:1026530023F52478257921121463908F737821123E
:10266300161178257921121463AA25AB26AC27AD60
:10267300281221C0740212176F8B22EA45226004CC
:102683007A0180027A00EC2AFCED3400FD74131207
:1026930017A5E0F8A3E0F9E8FEE9FFECF8EDF97A15
:1026A300717B021216CE88218922E4F523F5248E4C
:1026B300828F837821121620ECF8EDF97A717B0270
:1026C3001216CE8A218B22740578211217468E8228
:1026D3008F83A3A3A3A3E521F0A3E522F07F080240
:1026E30018E1C082C083E9906000F0D083D08222D9
:1026F300C0E074F2121921A2AFE433FED2AFE58930
:10270300A2E04006E589A2E1500312117575890024
:10271300758900C2C5754300EEA2E092AF7F010246
:102723001980C0E0C0D0E8C0E0E9C0E0A9A8D2AFFA
:10273300C2C7754300E9A2E7E433F8E9A2E792AF21
:10274300D0E0F9D0E0F8D0D0D0E032C2AF02000040
:1027530022FFFFFFFFFFFFFFFFC082C083E9900955
:10276300FBF00229EB74F71217C9E99002E1F07C40
:10277300197D037AFF7BFF1208699002E274FFF070
:10278300A3F0A3E4F0A3F079051207F19002E1E0CE
:10279300F91207137A877B08120A317F0102189B0B
:1027A30074F41217C98A218B22EB54806030900293
:1027B300E1E0F912122F8A238B24AE23AF24EE4FCC
:1027C30060138E828F83E064B07003120809EEFAFF
:1027D300EFFB12121DAA21E5226480FB80047A001C
:1027E3007B000229BA74F21217C974FC121759EA52
:1027F300FEEBFFEE4F603874021217A5EEF0A3EF65
:10280300122C1FECF0A3ED122C1FAA82AB8312072C
:102813000DE9F521707374121217A51237D3E5234E
:10282300452460658E828F83122896EE4F7005755E
:10283300210280557A067B001212B38A258B26A8C3
:1028430025A926E8497005752113803D888289836F
:10285300E41228A0A3A3EEF0A3EF123C6CE523F04F
:10286300A3E524F09002E71229289002E76017E01D
:10287300FCA3E08003EAFCEBFD8C828D8312292804
:1028830070F38C828D831236F8A921740412176FAA
:10289300023E6EA3A3A3A3E0FEA3E0FF22F0A3F0F6
:1028A300888289832274F21217C98923E975F01784
:1028B300A4FEAFF09002E6E4F09002E4122928604F
:1028C3000A1212B99002E4E4F0A3F0EEFAEFFB125D
:1028D30012B38A218B22EA4522602FEEFCEFFD79A9
:1028E3000012120B9002E4E521F0A3E522F07B0035
:1028F3008008122912E4F0A3F00BEBC3952340F2F6
:10290300E5239002E6F0790080027913023E6EEB34
:1029130075F017A4F8A9F09002E4E028FAA3E039CF
:102923008A82F5832212348EEA4B2274F41217C979
:10293300752100752200740C1217A5123C40FEE9A4
:10294300FF800CE5212401F521E5223400F522C3A3
:10295300E5219CE5229D50328521238522247403A1
:102963007823121746EA2523F8EB3524F988828960
:1029730083A3A3A3A3A3A31237D3EE65237003EF0B
:10298300652470BFE8FAE9FB80047A007B008027A6
:1029930074F41217C97900EAA2E0501B7521467539
:1029A300228F78211219DC7C047D007AFD7B0912C9
:1029B30007EB740212176F7F0402189BC082C08357
:1029C3009002E71229F2601C88828983A3A3E06A3C
:1029D3007003A3E06B8882898370E8A3A3A3A31287
:1029E300348A80047A007B00D083D08202013212C1
:1029F3003F41E8492274EE1217C974FC121759EAD1
:102A0300FEEBFF854182854283E4F0A3F0EE2402CE
:102A13001236DCEE2405122C0DEE2404F527EF12FA
:102A23002FF2E024FE603924FC604624FE60522429
:102A3300FE605E24FE7003022B1224FE7003022B41
:102A43008A24FE7003022B9924FE7003022BA82410
:102A5300FC7003022BB724FE7003022BC6022C0367
:102A63009003007417F0A3E4122C2712048B022C9A
:102A730003854182854283AC82AD8312080F022B0A
:102A8300D3854182854283AC82AD83120815022B24
:102A9300D385252185262274021217A5AC82AD8326
:102AA30085218285228312348A1207318A258B2657
:102AB300AC25AD26EC4D6042E4F525F526782512CC
:102AC30019DC75250075260378251219DC75250197
:102AD30075260378251219DC74081217A51219F349
:102AE3007916123484120851740812176FE9F52508
:102AF300700B1234801204A3800F75250185218287
:102B0300852283122C151236F8852521022BD674C3
:102B1300021217A5AC82AD838525828526831234E4
:102B23008A1207318A298B2AAC29AD2AEC4D6043DE
:102B3300852582852683A3A31219F3752900752A97
:102B43000378291219DC752901752A0378291219CA
:102B5300DC74081217A51219F379161234841208BB
:102B630051740812176FE9F522700B1234801204A6
:102B7300A9800F752201852582852683122C1512C3
:102B830036F8852221804C854182854283AC82AD13
:102B93008312081B803A854182854283AC82AD83D0
:102BA300120821802B854182854283AC82AD83123A
:102BB3000827801C854182854283AC82AD8312083D
:102BC3002D800D854182854283AC82AD831208330B
:102BD300E9F521E52160298E828F83A3E0641460E7
:102BE3001F852782852883E0900300122C1F123F44
:102BF3003D9003011236F8E521A3122C2712048518
:102C0300EEFAEFFB1207AF0235E4F525EF3400F5DA
:102C13002622123F4185418285428322F0854182EB
:102C230085428322F07C007D0385238285248312E1
:102C3300348E2274EE1217C974FC1217598A238B2F
:102C4300248C278D28EA2405F521EB3400F5227C1A
:102C5300157D0079007A007B0312120BE521240213
:102C6300F525E522122C1085418285428385822930
:102C730085832A78291219DC852182852283A3A3DF
:102C8300A3A312313A1219DCE5212405F529E52223
:102C93003400F52A78291219DC85258285268312CA
:102CA300349412072B740612176F8A298B2AAE29C4
:102CB300AF2AE5232402F523E5241236DFEE4F7015
:102CC30003022DFC801774021217A512348A88821E
:102CD3008983EAF0A3EBF0900300E004F090030093
:102CE300E0C394054003022DFCE4F529F52A782975
:102CF3001219DC7529E9752A0278291219DC75295C
:102D0300EA752A0278291219DC74061217A512191A
:102D1300F37910EEFCEFFD1234841208517408129B
:102D2300176FE9705E852182852283A3A3A3A3A3E2
:102D3300A3A3E0F89002E9E068704812313A12194F
:102D4300DC7CEA7D02E5212408FAE5223400FB124B
:102D53001205740212176FE960298E828F83A3A371
:102D6300A3A312348A900300E0F529740278291290
:102D7300174674012529F5827403352AF583EAF091
:102D8300A3EBF074021217A585822985832A78297B
:102D93001219DC74021217A51219F38525828526F0
:102DA30083123F52120737740412176F8A298B2A32
:102DB300AE29AF2A900300E0F529752A0074027842
:102DC3002912174674002529F87403352AF98882D5
:102DD3008983A31229287003022CC0E82403F8E98D
:102DE3003400F9EE4F6003022CC98882898374FF93
:102DF300F0A3F0900300E004F0900300E0600A12F7
:102E030034801204977900800B85218285228312F6
:102E130036EF790A0235E474EA1217C974FE121701
:102E2300598C2B8D2CEA2405F525EB1240BC122876
:102E33009A752100752200EA2402F529EB3400F586
:102E43002A854182854283858223858324782312C0
:102E530019DC852582852683A3A3A3A3122FFC1245
:102E630019DCE5252405F523E5261236DF78231240
:102E730019DC852582852683123F5012072B7406A1
:102E830012176F8A238B24EA45247003022FADEABD
:102E93002404F527EB122FF212289A8A828B83A33C
:102EA300A3A3E0F9852982852A8312348A1207199C
:102EB300E9F5226003022FADE4F52DF52E782D12EE
:102EC30019DC752DE9752E02782D1219DC752DEAA2
:102ED300752E02782D1219DC74061217A51219F338
:102EE3007913AC23AD24852982852A8312348A126F
:102EF3000851740812176FE9F5226003022FAD9091
:102F030002E9E0F8E5217009E02402900301F08072
:102F130017900301E0FCE82402FAE43400FBEA6CB6
:102F23007001EB6003022FB1852182AA8212313135
:102F330094141231295073852782852883E0C0E0D9
:102F430074022A122FE9D0E0F00521852782852813
:102F530083A3E0C0E085212374022523122FE9D047
:102F6300E0F005219002E9122FFC1219DC7CEA7DC6
:102F73000285212374022523FA74033400FB121102
:102F8300F3740212176F9002E9E02521F52174FF13
:102F93006E700374FF6F6012EE24010EEF3400FFB6
:102FA300E521C394145003022E44E5216013123328
:102FB30075852982852A8312348A12049D790080BB
:102FC30014E522700375220A852B82852C83EEF08B
:102FD300A3EFF0A922740212176F7F0E02189B85CC
:102FE300212574022525F58274033400F5832234E8
:102FF30000F528852782F58322123C7F2274EE1286
:1030030017C974FE1217598C278D28EA2405F52554
:10301300EB122C10752400900300E4F0F523EA244E
:1030230002F521EB3400F5228049900300E0FA9089
:1030330002E9E0F81231319417123129400D90035F
:1030430000E0F87416C3989002E9F012313A1219AD
:10305300DC7CEA7D0274012AFA74033400FB12114A
:10306300F3740212176F9002E9E0F8900300E0286E
:10307300F00523E5252416F582E526122FEDE0F869
:10308300E523C3984003023112900300E0C3941672
:10309300507DE523C333F8E433F9E52528FEE5261F
:1030A30039FF854182854283AC82AD838E828F83D3
:1030B30012348A1207318A298B2AAC29AD2AEC4DA6
:1030C30070057524018043E4F529F52A782912193E
:1030D300DC7529E9752A0278291219DC7529EA7544
:1030E3002A0278291219DC74061217A51219F3792A
:1030F3001685218285228312348A1208517408129C
:10310300176FE9F524700302302D1236EB80107C23
:10311300007D0385218285228312348A1204AFA99C
:103123002474020235E6E99400C365D03322EA2809
:10313300F8E43400F9E822E0F529752A0078292219
:1031430074EA1217C974FC1217598A258B268C2B23
:103153008D2CEA2405F523EB1236DF752100752249
:1031630000E5232402F529E5243400F52A7402122C
:1031730017A585822785832878271219DC85238262
:10318300852483A3A3A3A3123C2B1219DCE52324D8
:1031930005F527E5243400F52878271219DC85295D
:1031A30082852A831236E512348412072B740612A1
:1031B300176F8A278B28AE27AF28E5252402F5272A
:1031C300E5263400F52880408882898374FFF00562
:1031D30021122FE274FFF005219002E9E0F5257535
:1031E300260078251219DC7CEA7D028521257402EC
:1031F3002525FA74033400FB1211F3740212176FBE
:103203009002E9E02521F521EE4F60718E828F83D4
:10321300A3A3A3E0F985278285288312348A1207A2
:1032230019E9F522EE2404122C0DE97044E4F52D7E
:10323300F52E782D1219DC752DE9752E02782D12D5
:1032430019DC752DEA752E02782D1219DC7408121B
:1032530017A51219F37911EEFCEFFD852782852856
:103263008312348A120851740812176FE9F5226029
:103273002785258285268312336B1236F8E5217064
:103283000302335112337585278285288312348ACA
:103293001204B57900023366852182AA82EA90027C
:1032A300E97009E02404900301F08022E0F8900320
:1032B30001E0F52DE82404FCE43400FDEC652D70F9
:1032C30001ED70C0123131941212312950B68525A7
:1032D30082852683E0C0E074022A122FE9D0E0F051
:1032E3000521852582852683A3E0C0E0122FE2D045
:1032F300E012338785822585832678251219DC74AD
:10330300041217A51219F3852982852A83123F52C5
:10331300120737740412176F8A258B26AE25AF2642
:1033230085212574022525F874033400F9EE4F70C6
:10333300030231CB854182854283E08882898312EF
:103343003387A3E0C0E0122FE2D0E00231D9E522B7
:10335300700375220A85238285248312336B123608
:10336300F8A9227404022FDA123F41852B82852C9F
:103373008322900301E0F5F0E52184900300F07CC3
:10338300007D0322F005218541828542832274EC6E
:103393001217C974FE1217598A218B228C278D2884
:1033A300EA2405FEEB3400FF854182854283AC822B
:1033B300AD838E828F8312348A1207318A238B2442
:1033C300EE2418122C0DEA4524700302345B1235E7
:1033D300CD503285418285428312348A1208458A50
:1033E300298B2AEA452A606B7912AC23AD24852107
:1033F3008285228312348A852982852A831217C7FC
:10340300E9F5237058E4F523F52478231219DC8EAB
:10341300828F83A3A3E0F52378231219DCEE240320
:103423001236DC78231219DC8E828F8312349412C5
:103433000857740612176FE9F523702185258285D5
:103443002683E0701F85218285228312348A120429
:10345300BB801175230E80097523018004E5236069
:10346300031236EB852582852683E060047900808C
:1034730002A923740212176F7F0C02189B7C007D34
:103483000385238285248312348E22E0FAA3E0FB92
:1034930022E0FCA3E0FD85218285228312348E2263
:1034A30074EE1217C974FE1217598A218B228C25C8
:1034B3008D26EA2405FEEB3400FF75270085418243
:1034C300854283AC82AD838E828F8312348A120746
:1034D300318A238B24EA452470030235B91235CD92
:1034E300503585418285428312348A1208458A27E2
:1034F3008B28EA4528605E7912AC23AD24852182AE
:1035030085228312348A8527828528831217C7E987
:10351300F52760030235BC8521828522831237D3C8
:10352300AA23FB1208398A298B2AA829A92AE84940
:10353300701E7AFF7BFF1208398A298B2AA829A9D2
:103543002AE849606C88828983E523F0A3E524F0A7
:10355300752300800775270E805F05239002E6E040
:10356300FAE523C39A504AE52375F017A4FAABF0A2
:1035730088828983A3A3E02AFAA3E03BFB8A828B98
:10358300831236E5EC4D70D275231775240078232A
:103593001219DCEEFCEFFD1211F3740212176FEE39
:1035A300FCEFFD85218285228312348A1204C180B7
:1035B300147527098003752701123F3985258285F4
:1035C30026831236F8A927023124E5212402F521A6
:1035D300E5223400F5228A828B83A3A3A3E0A2E52C
:1035E30022740412176F7F0A02189B74EC1217C916
:1035F3008C298D2AEA2405F525EB122C1075280059
:10360300EA2402F523EB1236DF852382F583123495
:103613008A1208398A218B22EA452270030236D1A5
:103623007527008071852582852683E06401704FAC
:103633008E828F83A3A31219F38E828F83A3A3A3F6
:10364300A3E0F52B752C00782B1219DCEE2405F57D
:103653002BEF3400F52C782B1219DC12348412086A
:1036630057740612176FE9F528601485258285269D
:1036730083E4F0123F39852982852A831236F87C48
:10368300177D007900EEFAEFFB12120B8E828F8307
:10369300E4F0A3F005279002E6E0F8E527C398508D
:1036A3001EE52775F017A4F8A9F0852182852283EA
:1036B300A3A31240C61236E5EC4D600302362885FB
:1036C300218285228374FFF0A3F0E528700612346B
:1036D300841204C7A92802347BF523EF3400F524B0
:1036E30022A3E0FCA3E0FD228E828F83123F41855B
:1036F3002782852883E8F0A3E9F022C082C0839063
:1037030002E2E06A7003A3E06B70067AE27B028058
:10371300047A007B000229EBC082C08378008C828C
:103723008D83E06A7003A3E06B7010E875F003A467
:10373300F8A9F0EC28FAED39FB8015088C828D830B
:10374300A3A3A3E06A7003A3E06B60DF7A007B00AE
:103753000229EB74F61217C91208038A828B83E5D8
:1037630082458370067A007B008007A3A3A3A3127C
:10377300348A023DEA74F21217C9E9FE740E121775
:10378300A51237D374101217A5123C4B8C828D836C
:10379300E064027036A3123F47F525A3E0F9A8259C
:1037A30074026870037429697021752502752600F7
:1037B30078251219DC78211219DC78231219DCEE32
:1037C300F912087B740612176F80027901023E6EAC
:1037D300E0F523A3E0F5242274E81217C974FB1261
:1037E3001759E9854182854283F08A2F8B30ECFE9D
:1037F300EDFF752900741D1217A5123F3D741D12AC
:1038030017A51236F88E828F83A3A3A3E0A2E450F8
:103813002D741D1217A512348A1208458A828B83D0
:10382300E58245837003023C1C790AEEFCEFFDAA96
:103833002FAB301217C7E9F5296003023C1F741F31
:103843001217A5123C4B74211217A51237D37423F8
:103853001217A5E0F527A3E0F5288E828F83E06495
:10386300026003023BCAA3123F3D85218285228366
:10387300A385822B85832CEE2406122C0D88828946
:1038830083E0FAA3E0F9EA2400F52DE439F52E7874
:103893002D121A66010000280128BF3807000228EC
:1038A30084390328F1380029BB3A0129E63A022971
:1038B300873A0329BB3A0429653BCA3BE5274528D8
:1038C3006003023BC5852582852683123C40FAE9C5
:1038D300FB8A828B83E0852382852483123C7612C4
:1038E30019DC8A828B83A3E0FCA3E0023B4FE5272C
:1038F30045286003023BC58523828524837401F038
:10390300123C53852182852283F07C007D008E82C8
:103913008F83A3A3A3A3E02401FAA3E03400FB1243
:103923000731EA4B60418A828B83E02402F88523C6
:1039330082852483E028F0EA2404F8EB3400F98834
:10394300828983E0852B82852C83123C88123C7606
:103953001219DC8A828B831236E4E5212403FAE50B
:10396300223400FB023B54852382852483E0240414
:10397300F07C047D007900AA2BAB2C12120B023CC5
:103983001FE52745286003023BC5123C53FEA3E015
:10399300FF8523828524837404F0EE8521828522AA
:1039A30083F0EF852B82852C83F074031217A5AC6B
:1039B30082AD83EEFAEFFB1207318A258B26EA45A7
:1039C300267003023A688A828B83A3A31228967413
:1039D300011217A585822785832878271219DC749D
:1039E300051217A51219F37CFF7DFF120737740424
:1039F30012176F8B28EA4528703385258285268325
:103A0300123C2B1219DC852582852683A31219F318
:103A13007C027D007AFE7B8F120563740412176F9C
:103A2300E9700A74011217A574FFF0A3F08E828F58
:103A330083E0640270397525027526007825121912
:103A4300DC8E828F831236E4E5212404FAE52234E6
:103A530000FB1211F3740212176F852382852483EE
:103A6300E02402800974011217A5EEF0A3EFF074AD
:103A7300011217A5123C3CF074011217A5A3123CC6
:103A830034023BBFE52745286003023BC5852582F9
:103A93008526831236E5AA2FAB3012086F85238261
:103AA3008524837402F0EA852182852283F0852BA5
:103AB30082852C83EB023BC2E52745286003023B4A
:103AC300C5123C53F8A3E0F985238285248374024D
:103AD300F0E8852182852283F0E9852B82852C837A
:103AE300023BC285258285268312348A1211EDEAB0
:103AF300FC8C82A882C39527E49528405FE865275C
:103B03007002E52870047C0080228541828542830F
:103B1300E0FAE5272AFAE5283400FBC3EA98EB9498
:103B2300005003E08005E527CCC39CFCEC85238291
:103B3300852483F08C2375240078231219DC8525D2
:103B430082852683E02527FCA3E03528FDAA21AB47
:103B5300221211F3740212176F023C1F7529070218
:103B63003C1FE5274528705A852582852683123F09
:103B73003D85238285248374071228A2123C3412C4
:103B830028A2A3E0852B82852C83F0E82402FAE99E
:103B93003400FB8A828B83123C34123C63123C3C1C
:103BA300A3123C6C123C45F0E82405F8E93400F913
:103BB30088828983123C45A3123C88A3A3A3A3F064
:103BC300805A75290B8055741D1217A512348A1259
:103BD30008038A828B83E5824583603D123F3D88DB
:103BE300258926E84526603178271219DC782312C7
:103BF30019DC78211219DC74061217A5E0F9EEFC22
:103C0300EFFDAA2FAB308525828526831217C77453
:103C13000612176FE9F529800375290EA929740582
:103C230012176F7F1002189BE0F52775280078277D
:103C330022E085218285228322123C9222123F4177
:103C4300E822123C92A3A322E0F521A3E0F522226D
:103C5300852582852683E0F8A3E0F5838882E02228
:103C6300A3A3F08A828B83A322F088828983A3A3F0
:103C7300A3A322F08A828B83123C7F22E0F5237573
:103C83002400782322F088828983A3123C9222E0C5
:103C9300852182852283A3A32274EE1217C974FEA1
:103CA3001217598A238B24ECFAEDFB74141217A50F
:103CB300E0F529A3E0F52A74161217A5E0FE74189F
:103CC3001217A5E0F527A3E0F528854182854283F5
:103CD300AC82AD831207318A258B26EA45266049DB
:103CE30085418285428312348A1208038A828B8338
:103CF300E5824583602FA3A3123C4BE52145226057
:103D03002478271219DC78291219DCEEF9AC25ADD9
:103D130026AA23AB248521828522831217C7740424
:103D230012176F8006790E8002790102312474F62E
:103D33001217C974FE121759740C1217A5123C40BE
:103D4300854182854283F074011217A5E9F0E4F5F9
:103D530021F52278211219DC75210278211219DC50
:103D630074041217A585822185832278211219DC18
:103D7300120857740612176F740212176F80687453
:103D8300F71217C9EAFEEBFF89217C197D0312089C
:103D93006FEA5402600BA921EEFAEFFB12072580AC
:103DA30002790102279E74F61217C974FF6A700321
:103DB30074FF6B70168C828D83123DEFE4F08C825E
:103DC3008D83A3A3A3123DEFA3801812083F8A217A
:103DD3008B22A821A922E849600D8882898374FF78
:103DE3001228A0A3A3E4F07F0202189B74FFF0A3A0
:103DF300F08C828D83A3A32274F61217C912083F95
:103E03008A828B83E58245836006A3A3E0FA80025E
:103E13007A007B0080D174F21217C98A218B22ECBD
:103E2300FEEDFF740E1217A5E0F52312083F8A2555
:103E33008B26A825A926E8497026EEFCEFFD7AFF1C
:103E43007BFF12083F8A258B26A825A926E84970FF
:103E5300047911801688828983E521F0A3E522F095
:103E630088828983A3A3E523F079007F0602189B48
:103E730074EE1217C9EAFEEBFF8C218D228925749B
:103E8300141217A5123F3D74161217A512348A7522
:103E93002600E8496003023F31740265256003028E
:103EA3003F2C74121217A5123F47FCA3E0F9EC2430
:103EB30000F527E439F528EAF4F8EBF4F9EC58F8BF
:103EC300E52859F9E849705CE5212406F8ED34004A
:103ED300F9882389248882F583123F5212086F8A56
:103EE300298B2AE52765297004E528652A6042782D
:103EF300271219DC852382852483123F5212087509
:103F0300740212176FE9F526702778271219DC85DA
:103F13002182852283A3A3123F5012088D740212BB
:103F2300176F800D752680800875260D8003752612
:103F33000BA9260235E98E828F83123F4122E0F8D6
:103F4300A3E0F922123F4188828983E022A3A3E000
:103F5300FCA3E0FDEEFAEFFB2274E81217C974E745
:103F6300121759854182854283EAF0A3EBF08C2F27
:103F73008D30892775210075220074311217A5E051
:103F8300F52BA3E0F52C74331217A5E0F52DA3E070
:103F9300F52E74351217A5E0F528E52275F003A474
:103FA300F8A9F08541828542831240C6E0F470038C
:103FB300A3E0F470030240A9EE2402F525EF1240BA
:103FC300BCE070030240A9852F2385302478231297
:103FD30019DCAC2DAD2EAA2BAB2C1207F7740212F1
:103FE300176F8A238B24EA452470030240A9E4F562
:103FF30029F52A78291219DC74061217A585822956
:1040030085832A78291219DC74091217A585822958
:1040130085832A78291219DC852B82852C83A3A317
:10402300A3A31219F37914AC23AD248E828F8312C8
:10403300348A120851740812176FE9706985238254
:10404300852483A3A3A3A3123F3D74021217A512D1
:1040530036F8852582852683E0A2E05018A92774C7
:10406300021217A5AC82AD838E828F8312348A121B
:104073000749E94221852582852683E0A2E150266E
:10408300E528F52378231219E0A92774031217A54D
:10409300AC82AD838E828F8312348A1207437401FC
:1040A30012176FE942210522E522C394025003024D
:1040B3003F9DA9217419023C233400F526852582EE
:1040C300F58322E028FEA3E039FF8E828F832274DA
:1040D300F21217C9EAFEEBFF892474016524600E0E
:1040E30074026524706A7901120A4FE97062EEFA6C
:1040F300EFFB1208398A218B22EA45226047752398
:1041030000800B7C177D00790012120B05239002AF
:10411300E6E0F8E523C3985021E52375F017A4F8EA
:10412300A9F0852182852283A3A3E028FAA3E0399D
:10413300FB8A828B831229F270C9852182852283AF
:1041430074FFF0A3F07C197D03EEFAEFFB1208690C
:10415300023E6E74F21217C98A218B22ECFEEDFF28
:10416300740E1217A51237D39009FBE0F4603D7A61
:10417300097B00121217EA4B60328A828B8374B177
:10418300F0A3E4123C65A3123C63A3E521F0A3E58D
:10419300221241B2EEF0A3EF1241B2A3A3E523F042
:1041A300A3E524F09009FBE0F9121223023E6EF01E
:1041B3008A828B83A3A3A3A3A32274F01217C974C7
:1041C300FA1217598922ECFEEDFF7521008A238B21
:1041D300247823121A20000410E34300421E4238BD
:1041E3004250426E428642A942C142D542FF427AC0
:1041F300438B43A243BD43E343E343154374016548
:104203002260030243DE8E828F83E0F8C39403406F
:10421300030243DEE8900AE50243BA7402652260B2
:10422300030243DE8E828F83124B3B900AE6E8F053
:10423300A3E90243BA7401652260030243DE124418
:104243001040030243DEE89007490243BA74016554
:104253002260030243DE8E828F83E0F8C39405401D
:10426300030243DEE890074A0243BA740165226001
:10427300030243DE12441040030243DEE890074B7F
:104283000243BA7410652260030243DE752310757E
:10429300240078231219DC7A4C7B071211F3740281
:1042A30012176F0244047401652260030243DE1295
:1042B300441040030243DEE890075C0243BA7401F2
:1042C300652260030243DE8E828F83E0900AE90257
:1042D30043BA7404652260030243DE8E828F8378BF
:1042E30025121611908FD3782512144450030243DC
:1042F300DE90075E7825121620024404E96003026B
:1043030043DE1206D1E970051210DF80559007F1E4
:1043130080617407652260030243DE7523067524FA
:104323000078231219DC8E828F83A3AC82AD837451
:10433300021217B71211F9740212176F7C007D0075
:10434300AA41AB428E828F83E0F912108BE9FEC340
:10435300940A40030244011206D1E9700CEEF912EB
:1043630010E5795012132B806D74F22EF582E4342C
:1043730007F5837401804074016522705E12441056
:104383005059E890075D802F74016522704D8E822D
:104393008F83E0F8C3940A5042E8900AE8801874C7
:1043A30001652270368E828F83E0F874F928C394F6
:1043B3000A5028E8900AEAF0804774016522701BCE
:1043C3009007F0E0F88E828F83E09007F0F0E870BA
:1043D30030E06401702B1210D380267521188021E0
:1043E300C3EA9427EB9400501574026522700F8E74
:1043F300828F83124ECF12056FE9F5218003752159
:1044030002A921740612176F7F0802189B8E828FF0
:1044130083E0F8C3940222A92102475E74F01217C5
:10442300C974B11217598C238D24908F4C742012A8
:1044330017BF740612166C74201217BF12108BE983
:10444300FF745F1217A5E0F522EFC3940A4003023D
:1044530045A175F006EFA4F52174411217BF7A0E3A
:1044630074202521F9121325E97009744D1217A53B
:10447300E0FE80027E00900AE5E064027005752785
:10448300018003752700740865227004742280027A
:1044930074212521F5267C1B7D00790074261217D3
:1044A300B712120B74261217BF7A1BA926121325F3
:1044B300E9702D74401217A5E024F9C3940A502023
:1044C300E527F52678261219E074271217BFEEA206
:1044D300E0E433F9AA23AB24120611740112176F17
:1044E3007C147D007900740C1217B712120B740C34
:1044F3001217BF7A1074242521F9121325E9703499
:104503007C1079FF740C1217B712126BE9702574C3
:104513001C1217A5AC82AD837A0474252521F912E8
:104523001325740C1217BFEEA2E0E433F9AA23ABF0
:10453300241205F9AC41AD427A0C74702FF91213B1
:1045430025E97049AA41AB421210BB7F00EF75F019
:1045530003A4F8A9F0854182854283E58228F8E522
:1045630083124CE8124EC9601D88828983A3A3E09D
:10457300F52775280078271219DCAA23AB24120823
:104583005D740212176F0FEFC3940440C0EEA2E1F3
:10459300500C900748E0F9AA23AB24120863740473
:1045A30065227028900AE5E0640270207800900785
:1045B3005CE060027801900749E06005740448807C
:1045C30001E8FEEEF9AA23AB241206B97900744F71
:1045D30002440874F01217C974F0121759EAFEEB7B
:1045E300FF8C218D2275230AE9600C146009146085
:1045F3003B14607D0246CC1210CDE9F523C3940A27
:1046030040030246CCE521452270030246CC7525C2
:104613000675260078251219DCEEFCEFFDAA21AB06
:10462300221211F3740212176F0246CC752500751E
:10463300270675280078271219DCEEFCEFFDE52527
:1046430075F00EA4F8A9F0746A28FA740739FB12FE
:104653001205740212176FE9700B0525E525C39443
:104663000A506680CA852523E523C3940A505A80DD
:1046730049752500AC41AD427A1075F006E525A4D5
:104683002423F9121325E9701C7C1079FFAA41AB8E
:104693004212126BE9700EEEFCEFFDAA41AB42121F
:1046A30005DBE9600B0525E525C3940A501B80C48F
:1046B300852523E523C3940A500FE521452260098C
:1046C300AA21AB22A9231210C7A9237410024408FC
:1046D30074F41217C9892275211574FF6A70037463
:1046E300FF6B70277E00AC227A027B00EEF912107A
:1046F300A9E960037521000EEEC3940A40E8E522A0
:1047030060537AF77B10120A61804A120A438A23A4
:104713008B24AE23AF24EE4F60387C007D00EE2463
:1047230005FAE43FFB8E828F83A3A3A3A3E0F912D0
:10473300108BE9F9C3940A500CAC227A027B001265
:1047430010A9752100E522600CEEFAEFFB1210F7B9
:10475300800375211402441A12176F7F0402189BF9
:1047630074F21217C9ECFEEDFF752115740E1217C2
:10477300A5E0F523A3E0F52474FF6A700374FF6BCF
:104783007021752200AC23AD24EEFAEFFBA92212AF
:1047930010AFE960037521000522E522C3940A5096
:1047A3003F80E2120A438A828B83E5824583602D30
:1047B3007C007D00E5822405FAE43583FBA3A3A3F3
:1047C300A3E0F912108BE9F9C3940A5013AC23AD9B
:1047D30024EEFAEFFB1210AF75210080037521144C
:1047E300A921024CB0C082C083900762EAF0A3EB18
:1047F300F0900748E0FC7D007A267B0012056F905D
:104803000748E0F91207D90252A174EE1217C974CE
:10481300EC121759EAFEEBFFEE240CF529E43FF501
:104823002A8E828F83A3858225858326EE2405F530
:1048330027E43FF528EE2409F523E43FF524EE248D
:1048430003F521E43FF5228E828F83A3A3E024FAAC
:104853007003024ADA24FD70030249E6147003026E
:1048630048EE14601024FD70030249C9147003025A
:104873004A1D024B2F1255526049E0F5838882127C
:104883004B3B88258926E845266038852982852A79
:1048930083E0F52778271219E0EE240BF582E43F35
:1048A300F583E0F9852382852483124ECF0A0A0A11
:1048B300AB228525828526831217C7740112176FD1
:1048C300024B2F8523828524831219F390075E12EE
:1048D300162F12060B740212176FE97003024B2F87
:1048E3007901852382852483024A99852582852639
:1048F30083E060030249AC852782852883E0A2E038
:1049030040030249AC9007FC12555560030249ACC1
:104913007C0E7D007900AA41AB4212120B852982DD
:10492300852A8312558BEA4B601075230675240084
:1049330078231219DCEA24108021852182852283C1
:1049430012558B120A43EA4B7003024B2F75230651
:1049530075240078231219DCEA2405FCE43BFD747A
:10496300021217B71211F3740212176F852782858B
:104973002883E0A2E25004D2F08002C2F0A2F0E465
:1049830033F8740C1217A5E048F0EEFCEFFDAA41D2
:10499300AB421210C1E970117A027B00900748E024
:1049A300F91212477900024B311255527003024B30
:1049B3002F124B407003024B2F852582852683E0FF
:1049C300FC7901024AC81255527003024B2F124B55
:1049D300407003024B2F852582852683E0FC7902F4
:1049E300024AC87C007D00EE2404FAE43FFB8521E3
:1049F30082852283E0F912108BE9F8C3940A4003FD
:104A0300024B2FEE240AFCE43FFD7A0475F006E81E
:104A1300A42425F912131F024B2F8521828522839B
:104A230012558B90075DE06007900AE8E0F9806912
:104A3300900AE5E070047905805F120A438A258BAA
:104A430026A825A926E82404F525E439F5268E822F
:104A53008F83A3A3A3A3A3A3A3E0A2E05041E849A8
:104A63007003024B2F852582852683E0FE60308507
:104A73002382852483E054107025740E1217BFE837
:104A83002405FAE439FBEEF912108BE9701179036E
:104A930085218285228312558B120605024B2FAC8A
:104AA30027AD28852582852683E0F9852182852205
:104AB3008312558B1211031255526070124B4060D2
:104AC3006B7C00790085218285228312558B8E822F
:104AD3008F831217C780551206D1E9704F9007F1E3
:104AE300E0640170151210DF9007F1E4F07C0AFD19
:104AF300F97AF27B0712120B802A752100A8217420
:104B0300F228FEE43407FF8E828F83E06401700B8A
:104B1300A9211210E58E828F83E4F00521E521C3DC
:104B2300940A40D9795012132B1210D379017414BB
:104B330012176F7F0A02189B124EB7F922125250B6
:104B4300124EB7F9E8FEE9FFEE4F2274F51217C9CA
:104B530074F2121759EAFE8C2375F006E9A4242097
:104B6300F521AC41AD427A0EF9121325E970467C6A
:104B73000679FFAA41AB4212126BE97038740C122A
:104B830017A512558BEAF8E5236005EEC8488004A3
:104B9300EEF4C858F8EA687001EB6015740C12174C
:104BA300A5E8F0A3E4F0AC41AD427A0EA9211213BB
:104BB3001F790180027900740E12176F7F030218A8
:104BC3009B74F21217C974E612175989238A218B31
:104BD30022ECFEEDFF740C1217BF7A0E75F006E996
:104BE300A42420F9121325E96003024CA97C067959
:104BF300FF740C1217B712126BE96003024CA9740D
:104C0300702523F524AC41AD427A0CF9121325E942
:104C13006003024CA5AA41AB421210BBE521452219
:104C2300701D7C0C7900AA41AB4212126BE97072C1
:104C33007C0C7D007900AA41AB4212120B8051AC6F
:104C430041AD42AA21AB221210B58A258B26A82595
:104C5300A926E8497022EE4F604CAC41AD427A0080
:104C63007B001210B5EAF8EBF9EA4B6039888289C8
:104C730083E521F0A3E522F0124D24FAEE6A7001D8
:104C8300EF601FEEF04F700888828983E4F0A3F091
:104C9300AA41AB421210BBAC41AD427A0CA924121B
:104CA300131F790180027900741A12176F7F0602AD
:104CB300189B74F71217C97E00EE75F003A4F8A9C8
:104CC300F0EC28F8ED124CE8E06A7003A3E06B7097
:104CD30006E8FAE9FB800B0EEEC3940440DB7A008E
:104CE3007B0002500739F9888289832274F71217EF
:104CF300C97C00EC75F003A4F8A9F0EA28F8EB12DC
:104D03004CE8E0F4FEA3E0F4FF88828983EEF0A38D
:104D1300EFF0124D24F4F00CECC3940440D5025090
:104D230007E82402F582E439F583E02274F41217CC
:104D3300C974F4121759EAFEEBFF8C218D229007F8
:104D4300FC125555704FEE4F7003024EA8EC4522EE
:104D53007003024EA81210CDE9900AEBF0C3940A37
:104D630040337524007C0679FFE52475F00EA4FA20
:104D7300ABF074642AFA74073BFB12126BE960030D
:104D8300024E090524E524C3940A40D975230AE594
:104D930023900AEBF0900AEBE0C3940A4003024E1F
:104DA300A875F006E0A4FB9007FC125555705CEE65
:104DB300FCEFFD7A0E74202BF912131F7C0C7D007F
:104DC30079FFAA41AB4212120BAC41AD427A0C906F
:104DD3000AEBE02470F912131F75230E7524007873
:104DE300231219DCEEFCEFFD900AEBE0124F671281
:104DF30011F3740212176F9007FCE521F0A3E5226B
:104E0300F07900024EAA8524238084E0C824061288
:104E13004EC360197A1B74212BF912131F124EAF64
:104E23002406F582E438F583E4F0A380D3124EAF71
:104E3300240A124EC360107A1B74222BF912131F1B
:104E4300124EAF240A80DB124EAF240C124EC36005
:104E5300107A1074232BF912131F124EAF240C80F7
:104E6300C1124EBC124EC360307A1074242BF91257
:104E7300131F124EBCF582E438F583E02410FCA323
:104E8300E03400FD7A0475F006900AEBE0A42425D3
:104E9300F912131F124EBC80899007F0E0600312D1
:104EA30011091210FD7901740C02475B124EB4C84C
:104EB300229007FCE0F8A3E022124EB4C824082293
:104EC300F582E438F583124ECFEC4D22E0FCA3E0EB
:104ED300FD2274F41217C974F2121759EAFEEBFF9C
:104EE300E9C3940A5004EE4F700479028034AC4154
:104EF300AD427A0E75F006E9A42420F9121325E9D0
:104F0300F521701C75230675240078231219DC74AF
:104F1300021217BFEEFAEFFB1211F3740212176FAE
:104F2300A921740E02475B74F41217C9EAFEEBFF62
:104F330075210075230675240078231219DCEEFC15
:104F4300EFFDE521124F67121205740212176FE984
:104F53006004A921800B0521E521C3940A40D4797B
:104F63000A02475E75F00EA4F8A9F0746428FA7477
:104F73000739FB2274F71217C9752100E52175F073
:104F83000EA4F8A9F0746428FE740739FFEEFCEF51
:104F9300FD7A0E75F006E521A42420F9121325E904
:104FA30060297C067D0079FFEEFAEFFB12120B7C81
:104FB300067D0079FFEE2CFAE43FFB12120BEE2480
:104FC3000CF582E43FF583E4F0A3F00521E521C36A
:104FD300940A40A89007F0E060031211091210FD33
:104FE300802274F71217C97E007F007C06EF124FF0
:104FF3006774FFF912126BE970010E0FEFC3940A85
:1050030040E9EEF97F0102189B74F71217C97E007D
:10501300EEF91210E5E9F90EEEC3940A5003E960C4
:10502300EF80E174F31217C974CB121759892190D9
:105033000AEBE06521701B7A017B00900748E0F9D9
:1050430012124D7A027B00900748E0F912124D12BA
:10505300111575F006E521A4FF74202FFE742712A5
:1050630017BF7A0EEEF9121325E9600302512E7C65
:105073000679FF74271217B712126BE96003025106
:105083002E7C0E7D0079FF74271217B712120B7C4A
:105093001B7D0079FF740C1217B712120B7C0C7D69
:1050A3000079FFAA41AB4212120B74271217BF7A81
:1050B3000EEEF912131FE9FE740C1217BF7A1B745C
:1050C300212FF912131FE9F522740C1217BF7A1B53
:1050D30074222FF912131FE9F523740C1217BF7AE8
:1050E3001074232FF912131FE9F524740C1217BF40
:1050F3007A1074242FF912131FE9F525740C121773
:10510300BF7A0474252FF912131FE9FFAC41AD4296
:105113007A0C74702521F912131FE9F8E52245234F
:10512300452445254F48CE4EFE80027E00EEF9749D
:105133003512176F7F0502189B74F71217C9E99090
:105143000748F01210D302500774F41217C9EAFE8D
:10515300EBFF548070030251E0900748E0F912120C
:105163002F8A218B22EA4522606C78018A828B8305
:10517300E02450603B14600624E1604B804EA3A3FF
:10518300A3A3E0704A8A828B83A3A3A3A3A3A3A3AD
:105193001219F38A828B83A3A3A3A3A3124ECF8AEC
:1051A300828B83125589121097740212176F801F16
:1051B300A3A3A3A3E0641E701679008A828B8312D3
:1051C300558912109180081210A3E9F8E86007AA24
:1051D30021AB2212121DEEFAEF64808062EE5402BC
:1051E30060237C007D007A007B001210C1E960110E
:1051F3007A017B00900748E0F9121247EE640280BF
:105203003C7A028043EEA2E0503C12558112110F0A
:10521300E9602F125552601F125250124B3B8821E6
:105223008922E8452260107C00790112558185218D
:10523300828522831217C7121115EE6401FAEFFB60
:1052430080087A0180027A007B0002475EE0F583E2
:105253008882A3A3227F0202189BC082C083900787
:1052630048E0F98A828B8312558A120863802FC023
:1052730082C08374FF1217591210D9E9C3940285AF
:105283004182854283400474028002740AF0AC4177
:10529300AD427A0179051206E9740112176FD083C2
:1052A300D08202013274F21217C974E8121759EA54
:1052B300FEEBFF89238C218D227C187D007900AAC7
:1052C30041AB4212120B854182854283EEF0A3EF7C
:1052D300F090074AE0C0E074021217A5D0E0F09006
:1052E300074BE0C0E074031217A5D0E0F0900AEA80
:1052F300E0C0E074171217A5D0E0F074151217A5DB
:10530300E054FEF0900AE9E0A2E0E433F8741512E9
:1053130017A5E048F0900AE9E0A2E1500478028082
:1053230002780074151217A5E054FD1253F0A2E39E
:10533300500478088002780074151217A5E054F71A
:105343001253F0A2E450047810800278007415120E
:1053530017A5E054EF1253F0A2E550047820800221
:10536300780074151217A5E054DF1253F0A2E2502F
:105373000478048002780074151217A5E054FBF03A
:1053830048F090074BE060207525107526007825BE
:105393001219DC7C4C7D0774061217A5AA82AB8315
:1053A3001211F3740212176F90075CE06011E5238A
:1053B300600974151217A5E04402F07801800278A1
:1053C3000074141217A5E048F0900749E0600478D0
:1053D300048002780074141217A5E048F0AC21ADE4
:1053E30022AA41AB421205FF7418024CADF048F0FB
:1053F300900AE9E02274F71217C91208DB7521003D
:10540300E52175F00EA4F8A9F0746428FE74073939
:10541300FF7C0679FFEEFAEFFB12126BE97009EEDF
:10542300FAEFFB79001208E10521E521C3940A4054
:10543300CF02500774F61217C974FD121759EAFE0A
:10544300EBFF9007FE125555703975210075220840
:1054530078211219DC75210275220078211219DCDA
:1054630075210C75229078211219DC7CFF7DFF7A5F
:10547300017B0012072B740612176F9007FEEAF0E8
:10548300A3EBF09007FE125555700302553CE4F56B
:1054930021F52278211219DC74041217AF882189AF
:1054A3002278211219DC74041217AF88218922781B
:1054B300211219DC9008001219F379029007FE12E9
:1054C300554A120851740812176FE9703A854182E0
:1054D300854283E0FA74011217A5E0F8E4C8F9EAFB
:1054E30028F521E439F522EA4522601B78211219B7
:1054F300DC9007FEE0F8A3125250A3A312554A1200
:105503001097740212176FE4F521F522782112190E
:10551300DC9008001219F37CFF7DFF9007FE125503
:105523008B120737740412176F9007FEEAF0A3EB90
:10553300F09007FE125555700479018002790074CA
:105543000312176F025258124ECFEEFAEFFB22905E
:105553000762124EB7F9E84922C082C0839007FC64
:1055630012555560109007FC12558B12121D9007AF
:10557300FCE4F0A3F0900AEB740AF00252A1124E7D
:10558300B4F5838882A3A3A3E0FAA3E0FB22C0823D
:10559300C0839061907404F0A37448F0A3E4F09086
:1055A30061807440F09061BC7407F0906187746906
:1055B300F09061B67416F07900120B4B7902120B5E
:1055C30051902754E493F46006E493F9120B27797E
:1055D30005120E5102598CC082C083E9540FF99011
:1055E3006185E0696012E5C654804449F5C6E59ECD
:1055F300547F644970F8E9F053C680E59E547F7088
:10560300FA02598C74F71217C9E5A8FE53A87E1243
:105613000B33C2BA539AFEC289759B00C2C2120BE6
:105623003975A91175B905120B3FD2BA439A0174A2
:10563300805E42A8025F23C082C083906181E4F050
:10564300A302598975E90075910075BF0002013203
:10565300C082C083906181E4F0A374C0F0A3E4022C
:10566300598BC082C08374F81217599003A412682F
:10567300BC70030257449003A4E0544060237908AC
:10568300854182854283AA82AB83120C478541827E
:10569300854283AA82AB831208FF9003A4E054BF20
:1056A300F0E054806010790C7A657B05120C47900A
:1056B30003A4E0547FF0E0A2E0500F7900120B4BFB
:1056C3001209059003A4E054FEF0E05402600F7940
:1056D30001120B4B1209059003A4E054FDF0E054B2
:1056E30004600F7900120B5112090B9003A4E054CC
:1056F300FBF0E05408600F7901120B5112090B9073
:1057030003A4E054F7F0E05410600F7902120B5138
:1057130012090B9003A4E054EFF0E05420600F79DA
:1057230003120B5112090B9003A4E054DFF0A3E022
:105733005401600D120B5D1209119003A5E054FE94
:10574300F0740812176F02598CC082C083E9600598
:1057530014602A804F90619A7433F0A37455F090CB
:1057630061A0743AF090053FE064017009C2919022
:1057730003A67467802D9003A67461802690619AB6
:10578300743FF0A3745AF09061A0747FF090053FCA
:10579300E064017009D2919003A6747180059003AF
:1057A300A6746AF002598CC082C083E9600B14604E
:1057B3000D14601714600C802090275880159027D3
:1057C30059801090053FE06401700590275A8003CB
:1057D30090275BE493906186F002598C74EE121764
:1057E300C974F4121759854182854283AC82AD8313
:1057F30075838F7582C7740412166C90275893F4BF
:105803006003025909907808E0C3940250030258D8
:10581300E974041217A5AC82AD8375838F7582205A
:10582300740812166CFC7EFF7FFF8E257D008C8230
:10583300858227800F74086D606D74096D606874CC
:105843000A6D60638D217522007402782112174658
:10585300125913121611A922E523C9F888297418BD
:105863007821121552E5294521FAE9FBE527C333CF
:10587300F8E433F974041217A5E58228F582E58369
:1058830039125E13C3E89AE99B4008E8C39AF8E922
:105893009B8006EAC398F8EB99F9C3E89EE99F5009
:1058A30006E8FEE9FF8D250DEDC39413408774FFD1
:1058B3006E700374FF6F60248525217402782112B2
:1058C3001746125913121611854182854283E582C8
:1058D3002527F582E5831262B2E521F00CECC3942F
:1058E30004500302582975210175220078211219E9
:1058F300DC74021217A5AC82AD837AD67B09121130
:1059030051740212176F740C12176F7F0A02189BDF
:1059130074482521F58274783522F583782122C0D5
:1059230082C083906186E0F890275BE493687009F6
:1059330090275AE493906186F09061AE7468F0A367
:10594300746AF090624574FBF0A304F053F4FD43D2
:10595300FE0290053F7401F09061A0E0643A700488
:10596300790080027901120B4B02598CC082C083EB
:105973009004F1E06401700A9004F6E06004790C8D
:10598300800279008003F0A3F0D083D08202013239
:10599300C082C08375E1F19004F4E0604D146009A6
:1059A300146051146049147050120B6F9004EAE0B4
:1059B300F97AEB7B04120DD3908FB312162F120ECC
:1059C30009908F6B12162F120DDF9004F5E0F91278
:1059D3000DEB7901120E45125AAF24161262AF7401
:1059E30087F0A3740BF07900809F120B7580BD12B2
:1059F3000B7B80B8120B8180B3791280EB74F412A5
:105A030017C975D90D9004D5E0A2E0E4331313F858
:105A1300125AA5484401F5D97800125B1240FB786D
:105A230000882174D61268127404125B1C40F2754C
:105A3300E1959004D5E0F97AD67B04120DD9900A4A
:105A43001D74FDF0A3740A125B22125B66125B5D88
:105A5300125C7A9004F4E064019004E8700B125A2B
:105A6300B8121611908FAF8009125AB812161190FE
:105A73008F8F782112159D908F7F78211215EB124D
:105A83005AAF240E1262AF7821121620125AAF2495
:105A9300141262AF7413F09003A27402F07F040235
:105AA300189B9004EAE0C4333354C0229004E8E026
:105AB300F8A3E0C82212674A78212274F61217C9A4
:105AC300125C4B8AD97800125B1240FB7800800687
:105AD300125BC3125D00E8C39940F5125C3D125B93
:105AE3001240FB7800800812680E7405125D00E80E
:105AF300C39940F375E195900A1D7409F0A3740BE3
:105B0300125B22125B2C7412F09003A2025EE788F0
:105B13002174EB2521F5827404125E7D9406221212
:105B23005C637403F0A3740B22125B66125B5D1259
:105B33005C7E9004E8E0F8A3E0C8240E125B557481
